S01700004D4C536F756E645461626C655F53572E737265637A
S113000012C06CC02BC02AC029C028C027C026C07B
S113001025C024C023C022C021C020C01FC01EC0D0
S11300201DC01CC01BC011241FBECFE5D4E0DEBF21
S1130030CDBF10E0A0E6B0E0E6E5F2E002C0059036
S11300400D92A637B107D9F720E0A6E7B0E001C0CA
S11300501D92A737B207E1F7AAD0FBC0D1CF87E73B
S113006089B910BC80B5866880BD8AB188618AB9B7
S113007008955D9BFECF8CB90895813011F4C29A26
S11300800895C2980895813011F4C19A0895C198D1
S11300900895B99ABA9A929AE2DF81B3886F81BBC4
S11300A082B3886F82BB85B38F6385BB829B08C094
S11300B081E08093760080E0E0DF81E0E4DF06C049
S11300C01092760081E0D9DF80E0DDDF8BB78064B9
S11300D08BBF85B7816085BF789408951F920F9276
S11300E00FB60F9211242F933F934F935F936F9307
S11300F07F938F939F93AF93BF93EF93FF93829BD1
S113010008C081E08093760080E0B7DF81E0BBDF48
S113011006C01092760081E0B0DF80E0B4DFFF918A
S1130120EF91BF91AF919F918F917F916F915F916B
S11301304F913F912F910F900FBE0F901F901895E4
S1130140CF93DF93A6E6B0E091E08FEF61E070E03B
S113015032B3ED01AB010C9002C0440F551F0A9459
S1130160E2F7242F2095232322BBE0E6F0E046E0CB
S1130170490F23B330E0019002C0359527950A94C6
S1130180E2F720FF892F9F5F9413F3CF92B3119668
S11301909B01088002C0220F331F0A94E2F7292B27
S11301A022BB942F4F31A1F6DF91CF91089571DFD7
S11301B061E070E089E030D0C3DF8F3FE9F39091D4
S11301C07600992341F0682F70E07E5F8FE024D0A1
S11301D080E059DF07C0682F70E073958FE01CD072
S11301E080E04BDF80917600882319F081E04BDFBB
S11301F0E3CF81E042DFE0CFECE6F0E042E750E01D
S113020080E090E02191820F911DE417F507D1F76A
S113021091958195910908950F931F93CF93DF933F
S1130220CBE6D0E096E09A838B831C827D836E8339
S1130230E3DF9F8388878FEE898705E710E0899144
S113024018DFC017D107D9F7DF91CF911F910F9114
S10902500895F894FFCFAD
S113025600010203040503040506077EFF000000EF
S10902660000000000008E
S9030000FC
