S01700004D4C536F756E645461626C655F53572E737265637A
S113000012C06AC02BC02AC029C028C027C026C07D
S113001025C024C023C022C021C020C01FC01EC0D0
S11300201DC01CC01BC011241FBECFE5D4E0DEBF21
S1130030CDBF10E0A0E6B0E0EEE5F2E002C005902E
S11300400D92A637B107D9F720E0A6E7B0E001C0CA
S11300501D92A737B207E1F7AED0FFC0D1CF87E733
S113006089B910BC80B5866880BD8AB188618AB9B7
S113007008955D9BFECF8CB90895813011F4C29A26
S11300800895C2980895813011F4C19A0895C198D1
S11300900895B99ABA9A929AE2DF81B3886F81BBC4
S11300A082B3886F82BB85B38F6385BB829B07C095
S11300B081E08093760080E0E0DFC19A05C0109271
S11300C07600C29A80E0DFDF8BB780648BBF85B790
S11300D0816085BF789408951F920F920FB60F9296
S11300E011242F933F934F935F936F937F938F9339
S11300F09F93AF93BF93EF93FF93829B07C081E0DD
S11301008093760080E0B9DFC19A05C01092760032
S1130110C29A80E0B8DFFF91EF91BF91AF919F91B8
S11301208F917F916F915F914F913F912F910F909C
S11301300FBE0F901F9018950F931F93CF93DF93CB
S1130140E6E6F0E047E08FEFA1E0B0E022B38F01F4
S1130150BD01008002C0660F771F0A94E2F7962F54
S11301609095922392BB60E670E09AEF940F23B3CC
S113017030E0EB01099002C0359527950A94E2F727
S1130180BE0120FF892F9F5F9413F1CF42B33196B4
S11301909D01E801088002C0220F331F0A94E2F790
S11301A0242B22BB46E0490F453281F6DF91CF91E3
S11301B01F910F9108956DDF61E070E089E02DD00B
S11301C0BBDF8F3FE9F390917600682F70E09923AD
S11301D031F07E5F8FE021D080E055DF05C073955C
S11301E08FE01BD080E049DF80917600882319F0EE
S11301F081E049DFE5CF81E040DFE2CFECE6F0E0EB
S113020080E090E02191820F911D20E0E237F20717
S1130210C9F79195819591090895CF93DF9396E05D
S113022090936D0080936E0010926F007093700035
S113023060937100E3DF90937200809373008FEEFC
S113024080937400CBE6D0E0899113DF80E0C5375A
S1110250D807D1F7DF91CF910895F894FFCF2E
S113025E00010203040503040506077EFF000000E7
S109026E00000000000086
S9030000FC
